{
  "_format": "hh-sol-artifact-1",
  "contractName": "TournamentScores",
  "sourceName": "contracts/TournamentScores.sol",
  "abi": [
    {
      "inputs": [],
      "stateMutability": "nonpayable",
      "type": "constructor"
    },
    {
      "anonymous": false,
      "inputs": [
        {
          "indexed": true,
          "internalType": "address",
          "name": "previousOwner",
          "type": "address"
        },
        {
          "indexed": true,
          "internalType": "address",
          "name": "newOwner",
          "type": "address"
        }
      ],
      "name": "OwnershipTransferred",
      "type": "event"
    },
    {
      "anonymous": false,
      "inputs": [
        {
          "indexed": true,
          "internalType": "uint256",
          "name": "tournamentId",
          "type": "uint256"
        },
        {
          "indexed": true,
          "internalType": "address",
          "name": "player",
          "type": "address"
        },
        {
          "indexed": false,
          "internalType": "uint256",
          "name": "score",
          "type": "uint256"
        },
        {
          "indexed": false,
          "internalType": "uint256",
          "name": "timestamp",
          "type": "uint256"
        }
      ],
      "name": "ScoreRecorded",
      "type": "event"
    },
    {
      "inputs": [
        {
          "internalType": "uint256",
          "name": "tournamentId",
          "type": "uint256"
        }
      ],
      "name": "getAllScores",
      "outputs": [
        {
          "components": [
            {
              "internalType": "address",
              "name": "player",
              "type": "address"
            },
            {
              "internalType": "uint256",
              "name": "score",
              "type": "uint256"
            },
            {
              "internalType": "uint256",
              "name": "timestamp",
              "type": "uint256"
            }
          ],
          "internalType": "struct TournamentScores.Score[]",
          "name": "",
          "type": "tuple[]"
        }
      ],
      "stateMutability": "view",
      "type": "function"
    },
    {
      "inputs": [
        {
          "internalType": "uint256",
          "name": "tournamentId",
          "type": "uint256"
        },
        {
          "internalType": "uint256",
          "name": "index",
          "type": "uint256"
        }
      ],
      "name": "getScore",
      "outputs": [
        {
          "internalType": "address",
          "name": "player",
          "type": "address"
        },
        {
          "internalType": "uint256",
          "name": "score",
          "type": "uint256"
        },
        {
          "internalType": "uint256",
          "name": "timestamp",
          "type": "uint256"
        }
      ],
      "stateMutability": "view",
      "type": "function"
    },
    {
      "inputs": [
        {
          "internalType": "uint256",
          "name": "tournamentId",
          "type": "uint256"
        }
      ],
      "name": "getScoreCount",
      "outputs": [
        {
          "internalType": "uint256",
          "name": "",
          "type": "uint256"
        }
      ],
      "stateMutability": "view",
      "type": "function"
    },
    {
      "inputs": [],
      "name": "owner",
      "outputs": [
        {
          "internalType": "address",
          "name": "",
          "type": "address"
        }
      ],
      "stateMutability": "view",
      "type": "function"
    },
    {
      "inputs": [
        {
          "internalType": "uint256",
          "name": "tournamentId",
          "type": "uint256"
        },
        {
          "internalType": "address",
          "name": "player",
          "type": "address"
        },
        {
          "internalType": "uint256",
          "name": "score",
          "type": "uint256"
        }
      ],
      "name": "recordScore",
      "outputs": [],
      "stateMutability": "nonpayable",
      "type": "function"
    },
    {
      "inputs": [
        {
          "internalType": "address",
          "name": "newOwner",
          "type": "address"
        }
      ],
      "name": "transferOwnership",
      "outputs": [],
      "stateMutability": "nonpayable",
      "type": "function"
    }
  ],
  "bytecode": "0x608060405234801561001057600080fd5b50336000806101000a81548173ffffffffffffffffffffffffffffffffffffffff021916908373ffffffffffffffffffffffffffffffffffffffff160217905550610b0e806100606000396000f3fe608060405234801561001057600080fd5b50600436106100625760003560e01c80635e660315146100675780638da5cb5b14610083578063adc6ba73146100a1578063bc47bcfa146100d3578063c6c6707f14610103578063f2fde38b14610133575b600080fd5b610081600480360381019061007c91906106ee565b61014f565b005b61008b610303565b6040516100989190610750565b60405180910390f35b6100bb60048036038101906100b6919061076b565b610327565b6040516100ca939291906107ba565b60405180910390f35b6100ed60048036038101906100e891906107f1565b61039f565b6040516100fa919061081e565b60405180910390f35b61011d600480360381019061011891906107f1565b6103bf565b60405161012a9190610948565b60405180910390f35b61014d6004803603810190610148919061096a565b61049b565b005b60008054906101000a900473ffffffffffffffffffffffffffffffffffffffff1673ffffffffffffffffffffffffffffffffffffffff163373ffffffffffffffffffffffffffffffffffffffff16146101dd576040517f08c379a00000000000000000000000000000000000000000000000000000000081526004016101d4906109f4565b60405180910390fd5b60004290506001600085815260200190815260200160002060405180606001604052808573ffffffffffffffffffffffffffffffffffffffff16815260200184815260200183815250908060018154018082558091505060019003906000526020600020906003020160009091909190915060008201518160000160006101000a81548173ffffffffffffffffffffffffffffffffffffffff021916908373ffffffffffffffffffffffffffffffffffffffff160217905550602082015181600101556040820151816002015550508273ffffffffffffffffffffffffffffffffffffffff16847f87358b3cc4a72c3fb097f479d5e6289be4bdbbee605caa6576405ede8a4d891f84846040516102f5929190610a14565b60405180910390a350505050565b60008054906101000a900473ffffffffffffffffffffffffffffffffffffffff1681565b60008060008060016000878152602001908152602001600020858154811061035257610351610a3d565b5b906000526020600020906003020190508060000160009054906101000a900473ffffffffffffffffffffffffffffffffffffffff1681600101548260020154935093509350509250925092565b600060016000838152602001908152602001600020805490509050919050565b606060016000838152602001908152602001600020805480602002602001604051908101604052809291908181526020016000905b8282101561049057838290600052602060002090600302016040518060600160405290816000820160009054906101000a900473ffffffffffffffffffffffffffffffffffffffff1673ffffffffffffffffffffffffffffffffffffffff1673ffffffffffffffffffffffffffffffffffffffff16815260200160018201548152602001600282015481525050815260200190600101906103f4565b505050509050919050565b60008054906101000a900473ffffffffffffffffffffffffffffffffffffffff1673ffffffffffffffffffffffffffffffffffffffff163373ffffffffffffffffffffffffffffffffffffffff1614610529576040517f08c379a0000000000000000000000000000000000000000000000000000000008152600401610520906109f4565b60405180910390fd5b600073ffffffffffffffffffffffffffffffffffffffff168173ffffffffffffffffffffffffffffffffffffffff1603610598576040517f08c379a000000000000000000000000000000000000000000000000000000000815260040161058f90610ab8565b60405180910390fd5b8073ffffffffffffffffffffffffffffffffffffffff1660008054906101000a900473ffffffffffffffffffffffffffffffffffffffff1673ffffffffffffffffffffffffffffffffffffffff167f8be0079c531659141344cd1fd0a4f28419497f9722a3daafe3b4186f6b6457e060405160405180910390a3806000806101000a81548173ffffffffffffffffffffffffffffffffffffffff021916908373ffffffffffffffffffffffffffffffffffffffff16021790555050565b600080fd5b6000819050919050565b61066d8161065a565b811461067857600080fd5b50565b60008135905061068a81610664565b92915050565b600073ffffffffffffffffffffffffffffffffffffffff82169050919050565b60006106bb82610690565b9050919050565b6106cb816106b0565b81146106d657600080fd5b50565b6000813590506106e8816106c2565b92915050565b60008060006060848603121561070757610706610655565b5b60006107158682870161067b565b9350506020610726868287016106d9565b92505060406107378682870161067b565b9150509250925092565b61074a816106b0565b82525050565b60006020820190506107656000830184610741565b92915050565b6000806040838503121561078257610781610655565b5b60006107908582860161067b565b92505060206107a18582860161067b565b9150509250929050565b6107b48161065a565b82525050565b60006060820190506107cf6000830186610741565b6107dc60208301856107ab565b6107e960408301846107ab565b949350505050565b60006020828403121561080757610806610655565b5b60006108158482850161067b565b91505092915050565b600060208201905061083360008301846107ab565b92915050565b600081519050919050565b600082825260208201905092915050565b6000819050602082019050919050565b61086e816106b0565b82525050565b61087d8161065a565b82525050565b6060820160008201516108996000850182610865565b5060208201516108ac6020850182610874565b5060408201516108bf6040850182610874565b50505050565b60006108d18383610883565b60608301905092915050565b6000602082019050919050565b60006108f582610839565b6108ff8185610844565b935061090a83610855565b8060005b8381101561093b57815161092288826108c5565b975061092d836108dd565b92505060018101905061090e565b5085935050505092915050565b6000602082019050818103600083015261096281846108ea565b905092915050565b6000602082840312156109805761097f610655565b5b600061098e848285016106d9565b91505092915050565b600082825260208201905092915050565b7f43616c6c6572206973206e6f7420746865206f776e6572000000000000000000600082015250565b60006109de601783610997565b91506109e9826109a8565b602082019050919050565b60006020820190508181036000830152610a0d816109d1565b9050919050565b6000604082019050610a2960008301856107ab565b610a3660208301846107ab565b9392505050565b7f4e487b7100000000000000000000000000000000000000000000000000000000600052603260045260246000fd5b7f4e6577206f776e657220697320746865207a65726f2061646472657373000000600082015250565b6000610aa2601d83610997565b9150610aad82610a6c565b602082019050919050565b60006020820190508181036000830152610ad181610a95565b905091905056fea2646970667358221220bfcc5b3437607a9bc619b46b6aa98d525e2c4feedc8320815cc35a2a73d9799464736f6c63430008130033",
  "linkReferences": {},
  "deployedLinkReferences": {}
}